:020000040800F2
:100000002004002001010008090100080B0100087C
:100010000D0100080F010008110100080000000098
:1000200000000000000000000000000013010008B4
:10003000150100080000000017010008ED0200088B
:100040001B0100081B0100081B0100081B01000820
:100050001B0100081B0100081B0100081B01000810
:100060001B0100081B0100081B0100081B01000800
:100070001B0100081B0100081B0100081B010008F0
:100080001B0100081B0100081B0100081B010008E0
:100090001B0100081B0100081B0100081B010008D0
:1000A0001B0100081B0100081B0100081B010008C0
:1000B0001B0100081B0100081B0100081B010008B0
:1000C0001B0100081B0100081B0100081B010008A0
:1000D0001B0100081B0100081B0100081B01000890
:1000E0001B0100081B0100081B010008DFF80CD0F1
:1000F00000F018F80048004705060008200400201A
:100100000648804706480047FEE7FEE7FEE7FEE7B1
:10011000FEE7FEE7FEE7FEE7FEE7FEE7A1030008D5
:10012000ED000008064C074D06E0E06840F00103D2
:1001300094E8070098471034AC42F6D3FFF7DAFF93
:10014000B0060008D0060008044A116800E000BFAD
:10015000024A1268521A8242F9D370470000002006
:100160000A49096801F0010171B10849803909683B
:1001700001F0010141B100BF4FF060410968002961
:10018000FAD04FF06042107070470000800E00E01F
:100190000948806940F00400074988610748006801
:1001A00020F47000054908600846006840F480109B
:1001B0000860002070470000001002400008014065
:1001C0000146002031B9054A32F821201204044BBF
:1001D0001A6001E04FF0FF3070470000AC060008E5
:1001E000100801400146002029B9044A52F8212094
:1001F000034B1A6001E04FF0FF307047AC06000877
:100200001008014010B500F001F810BD0CB5002039
:10021000019000903348006840F480303149086014
:1002200000BF3048006800F4003000900198401C86
:100230000190009818B90198B0F5A06FF1D1294844
:10024000006800F4003010B10120009001E00020AF
:1002500000900098012843D12348006840F0100026
:10026000214908600846006820F00300086008463D
:10027000006840F0020008601A4840681949486068
:100280000846406848600846406840F4806048601E
:100290000846406820F47C1048600846406840F4F6
:1002A000E81048600846006840F08070086000BFB1
:1002B0000C48006800F000700028F9D00948406838
:1002C00020F00300074948600846406840F00200FB
:1002D000486000BF0348406800F00C000828F9D1CE
:1002E0000CBD0000001002400020024002480068DF
:1002F000401C0149086070470000002010B5002133
:1003000000200022214B5B6803F00C0121B104297D
:1003100006D0082928D107E01D4B1E4C236027E09A
:100320001B4B1C4C236023E0184B5B6803F47010DC
:10033000164B5B6803F48032022303EB904022B932
:10034000154B4343134C23600DE0104B5B6803F4E3
:10035000003323B1104B43430E4C236003E00C4B9E
:1003600043430C4C236003E0094B0A4C236000BF5D
:1003700000BF064B5B68C3F30313084CE15C054BFD
:100380001B68CB40034C236010BD000000100240EE
:1003900000127A000400002000093D00080000203F
:1003A00010B51348006840F0010011490860084684
:1003B0004068104908400E494860084600680E49E8
:1003C00008400B4908600846006820F48020086057
:1003D0000846406820F4FE0048604FF41F00886023
:1003E000FFF710FF4FF000600449086010BD0000E7
:1003F000001002400000FFF8FFFFF6FE08ED00E0ED
:100400000FB4054B10B503A9044A029800F017F881
:1004100010BC5DF814FB0000AD05000818000020BA
:1004200002E008C8121F08C1002AFAD170477047BD
:10043000002001E001C1121F002AFBD170472DE905
:10044000F84F9946924688460546002706E025283B
:100450000AD051464A4690476D1C7F1C28780028D8
:10046000F5D13846BDE8F88F002315F8011F18466E
:100470002E2915D115F8011F04232A290DD06FF05C
:100480002F022978A1F13004092C09D800EB800053
:1004900002EB400008446D1CF3E758F8040B6D1C98
:1004A0002A78002ADDD0632A07D0732A0FD010469D
:1004B00051464A4690477F1C2AE018F8042B8DF8D5
:1004C000002000218DF801106E46012103E058F84C
:1004D000046B4FF0FF315A074FF0000401D409E0DC
:1004E000641C84420BDA8C42FADB325D002AF7D1BD
:1004F00005E0641C8C42FCDB305D0028F9D1274408
:1005000004E016F8010B51464A469047641EF8D2A3
:100510006D1CA3E72DE9F041044621461CA0FFF71E
:100520006FFFE70937B900F05FF8012519A0FFF761
:1005300067FF05E000F04AF8002517A0FFF760FF0D
:10054000062620E044FA06F000F0010767B92DB94D
:1005500000F03CF811A0FFF753FF13E000F044F85F
:1005600010A0FFF74DFF0DE035B900F03DF8012573
:1005700008A0FFF745FF05E000F028F8002506A0D9
:10058000FFF73EFF761E002EDCDABDE8F0810000AA
:1005900025633A005F7C2D002D7C5F007C2D7C5F05
:1005A000000000007C5F7C2D0000000070B5054657
:1005B0000C460548844203D1284600F061F870BD1E
:1005C0004FF0FF30FBE700001800002010B50020BE
:1005D000FFF708FE0A20FFF7B7FD0020FFF7F0FD48
:1005E0000A20FFF7B1FD10BD10B50020FFF7E8FDB0
:1005F0000A20FFF7A9FD0020FFF7F4FD0A20FFF70E
:10060000A3FD10BDFFF77AFEFFF7C2FD1548006895
:100610004FF47A72B0FBF2F1481EB0F1807F00D344
:100620001BE0481E4FF0E022506150170F220028B7
:1006300004DB13071C0E0C4B1C5406E013071D0EA5
:100640000A4B00F00F04241F1D5500BF00204FF07F
:10065000E02290610720106100BF02E004A000F0DA
:1006600015F8FBE70400002000E400E018ED00E0CE
:1006700048656C6C6F2C20576F726C64210D0A00FA
:1006800000B503461846FFF76BFD00BD10B50446E4
:1006900006E014F8010BFFF73DFF03A0FFF7B0FEE3
:1006A00020780028F5D110BD0A00000020000000CD
:1006B000D0060008000000201C00000020040008F4
:1006C000EC0600081C0000200404000030040008B0
:1006D0000000000000A24A0400000000000000002A
:0C06E000010203040607080900000000E6
:04000005080000ED02
:00000001FF
