:020000040800F2
:100000001804002001010008090100080B01000884
:100010000D0100080F010008110100080000000098
:1000200000000000000000000000000013010008B4
:100030001501000800000000170100086102000817
:100040001B0100081B0100081B0100081B01000820
:100050001B0100081B0100081B0100081B01000810
:100060001B0100081B0100081B0100081B01000800
:100070001B0100081B0100081B0100081B010008F0
:100080001B0100081B0100081B0100081B010008E0
:100090001B0100081B0100081B0100081B010008D0
:1000A0001B0100081B0100081B0100081B010008C0
:1000B0001B0100081B0100081B0100081B010008B0
:1000C0001B0100081B0100081B0100081B010008A0
:1000D0001B0100081B0100081B0100081B01000890
:1000E0001B0100081B0100081B010008DFF80CD0F1
:1000F00000F018F800480047B50300081804002075
:100100000648804706480047FEE7FEE7FEE7FEE7B1
:10011000FEE7FEE7FEE7FEE7FEE7FEE71503000861
:10012000ED000008064C074D06E0E06840F00103D2
:1001300094E8070098471034AC42F6D3FFF7DAFF93
:100140002C0400084C0400080948806940F00400B1
:10015000074988610748006820F470000549086075
:100160000846006840F480100860002070470000D6
:10017000001002400008014010B500F001F810BD69
:100180000CB50020019000903348006840F48030A6
:100190003149086000BF3048006800F4003000902A
:1001A0000198401C0190009818B90198B0F5A06F13
:1001B000F1D12948006800F4003010B1012000900E
:1001C00001E0002000900098012843D123480068F6
:1001D00040F01000214908600846006820F0030044
:1001E00008600846006840F0020008601A4840684D
:1001F000194948600846406848600846406840F42D
:10020000806048600846406820F47C1048600846DA
:10021000406840F4E81048600846006840F080708C
:10022000086000BF0C48006800F000700028F9D09A
:100230000948406820F003000749486008464068C4
:1002400040F00200486000BF0348406800F00C0026
:100250000828F9D10CBD0000001002400020024027
:1002600002480068401C01490860704700000020F7
:1002700010B5002100200022214B5B6803F00C0127
:1002800021B1042906D0082928D107E01D4B1E4CB6
:10029000236027E01B4B1C4C236023E0184B5B685A
:1002A00003F47010164B5B6803F48032022303EBF7
:1002B000904022B9154B4343134C23600DE0104B83
:1002C0005B6803F4003323B1104B43430E4C2360AF
:1002D00003E00C4B43430C4C236003E0094B0A4CF6
:1002E000236000BF00BF064B5B68C3F30313084CD9
:1002F000E15C054B1B68CB40034C236010BD000044
:100300000010024000127A000400002000093D00A5
:100310000800002010B51348006840F001001149A2
:10032000086008464068104908400E494860084681
:1003300000680E4908400B4908600846006820F430
:10034000802008600846406820F4FE0048604FF4B2
:100350001F008860FFF710FF4FF00060044908603D
:1003600010BD0000001002400000FFF8FFFFF6FE85
:1003700008ED00E002E008C8121F08C1002AFAD107
:1003800070477047002001E001C1121F002AFBD115
:10039000704710B5024602B109B9002010BD1346DE
:1003A00000BF11F8014B03F8014B002CF9D11046A6
:1003B000F4E7000030B599B0FFF75AFFFFF7C4FE2D
:1003C000174800684FF47A72B0FBF2F1481EB0F1A2
:1003D000807F00D31BE0481E4FF0E0225061501791
:1003E0000F22002804DB13071C0E0E4B1C5406E0E2
:1003F00013071D0E0C4B00F00F04241F1D5500BFEA
:1004000000204FF0E02290610720106100BF694694
:100410000DF13200FFF7BDFF002019B030BD000024
:100420000400002000E400E018ED00E04C040008A7
:100430000000002018000000740300086404000895
:1004400018000020000400008403000800000000E1
:1004500000A24A04000000000000000001020304A2
:04046000060708097A
:04000005080000ED02
:00000001FF
